:100000000C947C020C9499020C9499020C94990221
:100010000C9499020C9499020C9499020C949902F4
:100020000C9499020C9499020C946D200C94A720C6
:100030000C9499020C9499020C9499020C949902D4
:100040000C9499020C9499020C9499020C949902C4
:100050000C94C9180C9499020C9499020C94A7184A
:100060000C9499020C9499020C9499020C949902A4
:100070000C9499020C9499020C9499020C94990294
:100080000C9499020C9499020C9499020C948A197C
:100090000C9499020C9499020C9499020C94990274
:1000A0000C9499020C9499020C9499020E200A2047
:1000B00006200220FE1FFA1FF61FF21FEE1FEA1F86
:1000C000E61FE21FDE1FDA1FD61FD21FCE1FCA1F78
:1000D000C61FC21FBE1FBA1FB61FB21FAE1FAA1F68
:1000E000A61FA21F9E1F9A1F961F921F8E1F8A1F58
:1000F000861F821F7E1F7A1F761F721F6E1F6A1F48
:10010000661F621F5E1F5A1F561F521F4E1F4A1F37
:10011000461F421F3E1F3A1F361F321F2E1F2A1F27
:10012000261F221F1E1F1A1F161F121F0E1F05A893
:100130004CCDB2D44EB93836A9020C50B99186884C
:10014000083CA6AAAA2ABE000000803F6E616E008D
:10015000696E660000407A10F35A00A0724E1809CA
:100160000010A5D4E80000E87648170000E40B541E
:10017000020000CA9A3B000000E1F50500008096ED
:100180009800000040420F000000A086010000001F
:10019000102700000000E8030000000064000000D9
:1001A00000000A00000000000100000000002C76A2
:1001B000D888DC674F0823DFC1DFAE59E1B1B796BD
:1001C000E5E3E453C63AE651997696E8E6C284261A
:1001D000EB898C9B62ED407C6FFCEFBC9C9F40F2F6
:1001E000BAA56FA5F490055A2AF75C936B6CF96772
:1001F0006DC11BFCE0E40D47FEF520E6B500D0ED37
:10020000902E0300943577050080841E080000209E
:100210004E0A000000C80C333333330F986E12833C
:100220001141EF8D2114893BE65516CFFEE6DB1810
:10023000D1844B381BF77C1D901DA4BBE4242032D5
:1002400084725E228100C9F124ECA1E53D27000102
:100250000000FB021200020000B80243000300008D
:10026000B40204010309049E021402030904860275
:10027000160303090478020C0C033100320033002A
:1002800034003500000016035500530042002000E2
:10029000530065007200690061006C0000001403E7
:1002A00059006F007500720020004E0061006D0063
:1002B000650000000403090409024300020100C0B4
:1002C00032090400000102020100052400100105AA
:1002D0002401010104240206052406000107058209
:1002E0000310004009040100020A00000007050392
:1002F00002400000070584024000001201000202D3
:10030000000010C0167A040001010203010001C1BF
:1003100012018036018136000000000000005F00FD
:10032000000007000700147F147F14242A7F2A127C
:10033000231308646236495522500005030000006B
:100340001C2241000041221C0014083E0814080829
:100350003E080800503000000808080808006060E7
:10036000000020100804023E5149453E00427F40F3
:100370000042615149462141454B311814127F100A
:1003800027454545393C4A4949300171090503363D
:1003900049494936064949291E00363600000056AB
:1003A00036000008142241001414141414004122D1
:1003B00014080201510906324979413E7E1111119A
:1003C0007E7F494949363E414141227F4141221CBD
:1003D0007F494949417F090909013E4149497A7FDD
:1003E0000808087F00417F41002040413F017F080D
:1003F0001422417F404040407F020C027F7F04086E
:10040000107F3E4141413E7F090909063E4151218D
:100410005E7F09192946464949493101017F010199
:100420003F4040403F1F2040201F3F4038403F6337
:100430001408146307087008076151494543007F99
:1004400041410002040810200041417F00040201E4
:100450000204404040404000010204002054545433
:10046000787F484444383844444420384444487FE2
:100470003854545418087E0901020C5252523E7FDF
:100480000804047800447D40002040443D007F1073
:1004900028440000417F40007C041804787C080454
:1004A000047838444444387C14141408081414188C
:1004B0007C7C080404084854545420043F444020E1
:1004C0003C4040207C1C2040201C3C4030403C44B0
:1004D000281028440C5050503C4464544C440008AC
:1004E00036410000007F0000004136080010080877
:1004F000100878464146780011241FBECFEFDAE09D
:10050000DEBFCDBF12E0A0E0B1E0E6E3FDE502C052
:1005100005900D92AA38B107D9F726E0AAE8B2E013
:1005200001C01D92A33EB207E1F70E94BC1D0C94CE
:10053000992E0C940000CF93C82F579A249A259A8D
:10054000269A879A2C985F9A2C9A61E280E00E9402
:100550004E246C2F606880E00E944E2464E080E0AE
:100560000E944E2463E180E00E944E2460E280E01D
:100570000E944E246CE080E00E944E2460E880E0FF
:100580000E944E2460E480E0CF910C944E24841BA2
:10059000950BAB01421B530B889FB001899F700DD7
:1005A000700D1124449FC001459F900D900D1124A2
:1005B000680F791F072E000C880B990B0E94532996
:1005C0000C94E62A2F923F924F925F926F927F9205
:1005D000AF92BF92CF92DF92EF92FF920F931F9351
:1005E000CF93DF93CDB7DEB728970FB6F894DEBF71
:1005F0000FBECDBF2C013B011A013E832D830E940B
:10060000C70269837A838B839C839701A801B30116
:10061000C2010E94C7022B013C019701A8016D8114
:100620007E81C1010E94C7026D837E838F8398877C
:10063000A301920169817A818B819C810E94332878
:100640009B01AC016D817E818F8198850E9432284B
:100650000E941B299B0177FF04C022273327261BFA
:10066000370BB901330F880B990B0E94532921E0F6
:1006700030E03A832983A60195010E949F2818162D
:1006800014F41A82198289819A8128960FB6F894F7
:10069000DEBF0FBECDBFDF91CF911F910F91FF90B5
:1006A000EF90DF90CF90BF90AF907F906F905F9072
:1006B0004F903F902F900895CF92DF92EF92FF924C
:1006C0000F931F93CF93DF93A0913103B091320327
:1006D000C0913303D09134038091910290919202A2
:1006E000C0900B01D0900C01E0900D01F0900E0134
:1006F00040910F0150911001609111017091120110
:100700002CE030E0E6E7F3E0008111810A171B07D7
:1007100081F4028113810C171D0759F4019640E002
:1007200050E06CE172E4C12CD12C1EE9E12E12E400
:10073000F12E349613E0EA39F10731F721503109EF
:1007400009F79093920280939102C0920B01D0928C
:100750000C01E0920D01F0920E0140930F015093B5
:1007600010016093110170931201DF91CF911F91DD
:100770000F91FF90EF90DF90CF9008958F929F920E
:10078000AF92BF92CF92DF92EF92FF921F93CF93DF
:10079000DF931091D203C090CA03D090CB03E090B6
:1007A000CC03F090CD038090CE039090CF03A09027
:1007B000D003B090D103CAE9D3E0112301F16881DD
:1007C0007981072E000C880B990B0E9453299B01FD
:1007D000AC01C701B6010E949F28811110C06A8137
:1007E0007B81072E000C880B990B0E9453299B01DB
:1007F000AC01C501B4010E949F28882331F02496E2
:1008000083E0CA3CD807C9F610E0812FDF91CF9171
:100810001F91FF90EF90DF90CF90BF90AF909F908F
:100820008F900895BF92CF92DF92EF92FF920F9335
:100830001F93CF93DF930EEB14E0E12CF12C8AECA5
:10084000C82E83E0D82EF801B084CAE9D3E0BB20DB
:1008500009F459C068817981072E000C880B990B27
:100860000E9453299B01AC01F80160817181828152
:1008700093810E9432280E941B296E5F7F4F653052
:10088000710508F040C06A817B81072E000C880B3F
:10089000990B0E9453299B01AC01F8016481758179
:1008A000868197810E9432280E941B296E5F7F4FAC
:1008B0006530710540F589E08E9DF0018F9DF00D4A
:1008C0001124E254FB4F1086809197029091980278
:1008D0000196909398028093970280E090E0A0E2C6
:1008E000B1EC80839183A283B38384839583A683B1
:1008F000B78380919502909196020197909396020A
:10090000809395020FC02496CC16DD0609F09FCF88
:10091000FFEFEF1AFF0A075F1F4F85E0E816F104AB
:1009200009F091CFDF91CF911F910F91FF90EF9040
:10093000DF90CF90BF9008954F925F926F927F9219
:100940008F929F92AF92BF92EF92FF920F931F935D
:10095000CF93DF9380903103909032034090330324
:1009600050903403E0909702F09098020091950225
:1009700010919602CEEBD4E0092C000CAA08BB081B
:10098000052C000C660877088885882361F1C5016D
:10099000B4010E9453299B01AC01688179818A814D
:1009A0009B810E9432280E941B296E5F7F4F653019
:1009B0007105C8F4C301B2010E9453299B01AC0127
:1009C0006C817D818E819F810E9432280E941B292B
:1009D0006E5F7F4F6530710530F418868FEFE81A2F
:1009E000F80A01501109299684E0CB3ED80761F638
:1009F000F0929802E092970210939602009395026B
:100A0000DF91CF911F910F91FF90EF90BF90AF902A
:100A10009F908F907F906F905F904F9008958F92EE
:100A20009F92AF92BF92CF92DF92EF92FF920F937D
:100A30001F93CF93DF93C0901F01D0902001E090CF
:100A40009302F0909402C7E4D3E0812C912C80E2D1
:100A5000A82E81ECB82E0AE913E08885882309F4D2
:100A60003FC0F80160817181072E000C880B990B43
:100A70000E9453299B01AC01688179818A819B8105
:100A80000E9432280E941B296E5F7F4F65307105DE
:100A900038F5F80162817381072E000C880B990BE1
:100AA0000E9453299B01AC016C817D818E819F81C5
:100AB0000E9432280E941B296E5F7F4F65307105AE
:100AC00078F4188688829982AA82BB828C829D8261
:100AD000AE82BF82F1E0CF1AD10881E0E81AF108B6
:100AE0000C5F1F4FE3E00A3C1E0709F0B6CF2996C2
:100AF000F3E0C437DF0709F0AECFD0922001C092F7
:100B00001F01F0929402E0929302DF91CF911F9126
:100B10000F91FF90EF90DF90CF90BF90AF909F909C
:100B20008F9008954F925F926F927F928F929F92D3
:100B3000AF92BF92CF92DF92EF92FF920F931F93EB
:100B4000CF93DF931091DD034090D5035090D603EF
:100B50006090D7037090D8038090D9039090DA0307
:100B6000A090DB03B090DC03E0908F02F090900245
:100B700000918A02CAE9D3E09AECC92E93E0D92EFB
:100B800011112DC02496CC16DD06D1F71093DD038C
:100B90004092D5035092D6036092D7037092D80347
:100BA0008092D9039092DA03A092DB03B092DC0327
:100BB000F0929002E0928F0200938A02DF91CF912F
:100BC0001F910F91FF90EF90DF90CF90BF90AF906B
:100BD0009F908F907F906F905F904F900895688165
:100BE0007981072E000C880B990B0E9453299B01D9
:100BF000AC01C301B2010E9432280E941B296E5F22
:100C00007F4F6530710508F0BDCF6A817B81072E6B
:100C1000000C880B990B0E9453299B01AC01C50164
:100C2000B4010E9432280E941B296E5F7F4F6530FD
:100C3000710508F0A7CF81E0E81AF108012F812C97
:100C4000912C80E2A82E81ECB82E2401350110E011
:100C500099CF4F925F926F927F928F929F92AF92B5
:100C6000BF92CF92DF92EF92FF920F931F93CF9399
:100C7000DF9300D000D0CDB7DEB70BE011E0F80174
:100C80004080518062807380C301B2010E941B29A1
:100C9000E6E7F3E071836083F801C480D580E680E5
:100CA000F780C701B6010E941B294B015C017093BC
:100CB00079036093780320E030E040E85FE3C3010C
:100CC000B2010E9433280E941B2970937B0360931A
:100CD0007A0390927D0380927C0320E030E040E034
:100CE00050E4C301B2010E9433280E941B2969838A
:100CF0007A838B839C8389819A8190937F038093ED
:100D00007E03909281038092800320E030E040E4F3
:100D100050E4C301B2010E9433280E941B29709342
:100D2000830360938203909285038092840320E082
:100D300030E040E850E4C301B2010E9433280E9431
:100D40001B29709387036093860390928903809296
:100D50008803E981FA81F0938B03E0938A0320E012
:100D600030E040E85FE3C701B6010E9433280E94EB
:100D70001B2970938D0360938C0389819A819093D2
:100D80008F0380938E0320E030E040E050E4C70101
:100D9000B6010E9433280E941B297093910360932F
:100DA0009003E981FA81F0939303E093920320E0AA
:100DB00030E040E450E4C701B6010E9433280E94AD
:100DC0001B29709395036093940389819A81909372
:100DD00097038093960320E030E040E850E4C70199
:100DE000B6010E9433280E941B29709399036093D7
:100DF00098030F900F900F900F90DF91CF911F915C
:100E00000F91FF90EF90DF90CF90BF90AF909F90A9
:100E10008F907F906F905F904F900895CF93DF9366
:100E2000C6E7D3E06A817B8141E0888199810E9495
:100E30002822249683E0CA39D807A1F7DF91CF9101
:100E400008958F929F92AF92BF92CF92DF92EF92CE
:100E5000FF920E94422CBC01990F880B990B0E94B3
:100E600053292BED3FE049E450E40E94472A9B01BF
:100E7000AC010E94332820E03EEF4FEF56E40E9481
:100E8000A9286B017C016093130170931401809376
:100E90001501909316010E94A42880900301909060
:100EA0000401A0900501B0900601A50194010E94E3
:100EB000472A609313037093140380931503909350
:100EC0001603C701B6010E94D82A9B01AC01C501D7
:100ED000B4010E94472A60931D0370931E03809300
:100EE0001F0390932003FF90EF90DF90CF90BF906F
:100EF000AF909F908F9008952F923F924F925F9264
:100F00006F927F928F929F92AF92BF92CF92DF9219
:100F1000EF92FF920F931F93CF93DF93CDB7DEB77E
:100F20006D970FB6F894DEBF0FBECDBF20911303AF
:100F300030911403409115035091160360910B01F9
:100F400070910C0180910D0190910E010E94332847
:100F50000E94B42A0E941B298B0120911D0330910D
:100F60001E0340911F035091200360910F01709167
:100F7000100180911101909112010E9433280E946A
:100F8000B42A0E941B297B836A83101611061CF465
:100F900000351105F9F40E94422C6FEF7FE70E94A3
:100FA000912B072E000C880B990B0E94532920E0EF
:100FB00030E040E05FE30E943328609303017093C8
:100FC000040180930501909306010E94210721E00E
:100FD000298301C019828A819B818930910511F092
:100FE0008B97F1F40E94422C6FEF7FE70E94912BC8
:100FF000072E000C880B990B0E94532920E030E04B
:1010000040E05FE30E943328609303017093040182
:1010100080930501909306010E94210791E0998336
:10102000E6E7F3E0FD8FEC8F409007015090080158
:101030006090090170900A01EC8DFD8D2280338053
:1010400080809180E0902503F09026030091350385
:10105000109136032091AF023091B00240913F03CE
:101060005091400363015201B101C4010E94E202A8
:1010700020911703309118033D832C83E091B8042D
:10108000F091B904FF83EE832091AD023091AE025E
:1010900039872887E0912103F0912203FB87EA87B3
:1010A00020912303309124033D872C87E09137035F
:1010B000F0913803FF87EE872091BC043091BD0486
:1010C000398B288BE0911903F0911A03FB8BEA8B83
:1010D0002091D3033091D4033D8B2C8BE09174038A
:1010E000F0917503FF8BEE8B209100043091010489
:1010F000398F288FE0911103F0911203FB8FEA8F53
:10110000892B09F469C00E94422CBC01990F880BFD
:10111000990B0E9453292BED3FE049E450E40E94D3
:10112000472A9B01AC010E94332820E03EEF4FEF9D
:1011300056E40E94A92860931301709314018093D0
:101140001501909316010E94422C6FEF7FE70E94D9
:10115000912B072E000C880B990B0E94532920E03D
:1011600030E040E05FE30E9433282B013C016093B4
:101170000301709304018093050190930601C090D0
:101180001301D0901401E0901501F0901601C701F1
:10119000B6010E94A4289B01AC01C301B2010E94C8
:1011A000472A60931303709314038093150390935D
:1011B0001603C701B6010E94D82A9B01AC01C301E6
:1011C000B2010E94472A60931D0370931E0380930F
:1011D0001F03909320033BC024E030E03B832A832D
:1011E00063015201EC80FD800E811F8128853985C5
:1011F0004A855B85B101C4010E94E202892B09F096
:1012000082CFEC84FD840E851F85288939894A891F
:101210005B89B101C4010E94E202892B09F073CFFE
:10122000EC88FD880E891F89288D398D4A8D5B8D4C
:10123000B101C4010E94E202892B09F064CF2A8126
:101240003B81215031093B832A83232B49F68C8D26
:101250009D8D04969D8F8C8F8A59934009F0E4CE22
:101260003981311134C0209113033091140340911E
:1012700015035091160360910B0170910C01809140
:101280000D0190910E010E94332860930B01709321
:101290000C0180930D0190930E0120911D0330915C
:1012A0001E0340911F035091200360910F01709124
:1012B000100180911101909112010E9433286093D6
:1012C0000F017093100180931101909312016D969C
:1012D0000FB6F894DEBF0FBECDBFDF91CF911F9147
:1012E0000F91FF90EF90DF90CF90BF90AF909F90C5
:1012F0008F907F906F905F904F903F902F900895C8
:1013000080918B02811102C00E947C070C942906F7
:10131000ABE1B1E02D913C911197EAE9F3E0318323
:10132000208312968D919C91139793838283D90188
:101330001196B583A48397838683A9014E5F5F4F7F
:101340005187408793878287B9016D5F7F4F75878B
:101350006487978786876F5F7F4F718B608B938BD6
:10136000828B558B448BBC016F5F7F4F778B668B75
:10137000518F408F6F5F7F4F738F628F558F448F78
:101380006F5F7F4F778F668F51A340A3049693A31F
:1013900082A3B5A3A4A397A386A331A720A793A74D
:1013A00082A735A724A777A766A708958F929F9253
:1013B000AF92BF92CF92DF92EF92FF920F931F9363
:1013C000CF93DF930AE913E0C12CD12C8EE9E82EEC
:1013D00082E4F82E812C912C9CE1A92E92E4B92E66
:1013E000C6E7D3E028813981F801808191812817EF
:1013F000390711F52A813B818281938128173907AA
:10140000D9F480911F0190912001019790932001C0
:1014100080931F010E948809C0920B01D0920C0199
:10142000E0920D01F0920E0180920F019092100156
:10143000A0921101B09212012496F3E0CA39DF079D
:1014400089F60C5F1F4F83E00A3C180749F6DF91CD
:10145000CF911F910F91FF90EF90DF90CF90BF90B1
:10146000AF909F908F900895CF93DF9380918A02E1
:1014700081110EC0CAE9D3E06A817B8141E0888195
:1014800099810E942822249683E0CA3CD807A1F7BC
:10149000DF91CF9108952F923F924F925F926F927A
:1014A0007F928F929F92AF92BF92CF92DF92EF92F4
:1014B000FF920F931F93CF93DF93CDB7DEB7A4971F
:1014C0000FB6F894DEBF0FBECDBF60911B037091C5
:1014D0001C03072E000C880B990B0E94532920E057
:1014E00030E040E05BE30E94472A2B013C0160931F
:1014F0001701709318018093190190931A0180913C
:101500008A028111AFC1499B2DC080919C039091AB
:101510009D030A9724F422242394312CB4C02AE991
:1015200033E03A8329830AEC13E0E981FA8162818E
:10153000738161507109072E000C880B990B0E9472
:101540005329A30192010E9432280E941B29E9819C
:10155000FA81738362833496FA83E9830E171F0737
:1015600021F7D9CF1F9B2DC080919C0390919D03A3
:101570008B9724F022E0222E312C85C02AE933E01B
:101580003A8329830AEC13E0E981FA81628173814D
:101590006F5F7F4F072E000C880B990B0E94532919
:1015A000A30192010E9433280E941B29E981FA813C
:1015B000738362833496FA83E9830E171F0721F73A
:1015C000D9CF489B2EC080919A0390919B038F3472
:1015D000910524F093E0292E312C55C02AE933E0FF
:1015E0003A8329830AEC13E0E981FA8160817181F1
:1015F0006F5F7F4F072E000C880B990B0E945329B9
:10160000A30192010E9433280E941B29E981FA81DB
:10161000718360833496FA83E9830E171F0721F7DD
:10162000D9CF199B2EC080919A0390919B031816D5
:10163000190624F084E0282E312C25C02AE933E055
:101640003A8329830AEC13E0E981FA816081718190
:1016500061507109072E000C880B990B0E945329C9
:10166000A30192010E9432280E941B29E981FA817C
:10167000718360833496FA83E9830E171F0721F77D
:10168000D9CF212C312C4090070150900801609057
:10169000090170900A0120912503309126033C83B3
:1016A0002B8380913503909136039E838D83E09147
:1016B000AF02F091B002F887EF8320913F033091A1
:1016C00040033A87298780911703909118039C87DC
:1016D0008B87E091B804F091B904FE87ED872091E3
:1016E000AD023091AE02388B2F878091210390910B
:1016F00022039A8B898BE0912303F0912403FC8BC6
:10170000EB8B20913703309138033E8B2D8B8091EA
:10171000BC049091BD04988F8F8BE0911903F091D8
:101720001A03FA8FE98F2091D3033091D4033C8FB1
:101730002B8F80917403909175039E8F8D8FE09114
:101740000004F0910104F8A3EF8F20911103309170
:1017500012033AA329A38AE993E09CA38BA3EBA1EC
:10176000FCA182809380208131813A8329836301A7
:101770005201EB80FC800D811E812F8138854985C7
:101780005A85B40189819A810E94E202892B69F508
:10179000EB84FC840D851E852F85388949895A89FB
:1017A000B40189819A810E94E202892BF1F4EB88CD
:1017B000FC880D891E892F89388D498D5A8DB40179
:1017C00089819A810E94E202892B79F4EB8CFC8C4E
:1017D0000D8D1E8D2F8D38A149A15AA1B40189818B
:1017E0009A810E94E202892B89F131E023163104AB
:1017F000D1F4A4960FB6F894DEBF0FBECDBFDF9133
:10180000CF911F910F91FF90EF90DF90CF90BF90FD
:10181000AF909F908F907F906F905F904F903F9090
:101820002F900C94880982E02816310439F48091B5
:101830009C0390919D038B97ACF4DBCF93E0291A26
:101840003108E2E02E16310468F4D3CF2BA13CA17D
:101850002C5F3F4F3CA32BA38AEC93E082179307A6
:1018600009F07DCFA4960FB6F894DEBF0FBECDBFB2
:10187000DF91CF911F910F91FF90EF90DF90CF906C
:10188000BF90AF909F908F907F906F905F904F90A0
:101890003F902F90089580918A02882351F01092F2
:1018A0003203109231038AE090E0909334038093E6
:1018B0003303089580918A02882361F06091330395
:1018C0007091340321E04AE4809131039091320316
:1018D0000C94C3230895499B09C0809133039091D0
:1018E00034038A30910554F101970AC01F9B0DC043
:1018F000809133039091340388329105FCF4019672
:1019000090933403809333030895489B09C08091DA
:101910003103909132038F34910584F401960AC00B
:10192000199B0CC08091310390913203181619064F
:101930002CF40197909332038093310308952F92F2
:101940003F924F925F926F927F928F929F92AF924F
:10195000BF92CF92DF92EF92FF920F931F93CF939C
:10196000DF93CDB7DEB7E9970FB6F894DEBF0FBEB1
:10197000CDBF20919502309196023A8B298B89E058
:10198000829FF001839FF00D1124E254FB4F4080B1
:1019900051806280738020E030E040E85FE3C30163
:1019A000B2010E949F2887FD0EC031E039AF20E0D0
:1019B00030E04EE952E4C301B2010E94422A1816F7
:1019C00024F019AE02C081E089AF89E0A989BA8903
:1019D0008A9FF0018B9FF00D1124E254FB4F84810C
:1019E0009581A681B78189839A83AB83BC8320E0EC
:1019F00030E040E151E4BC01CD010E949F2887FD09
:101A00000FC020E030E04CE252E469817A818B81A2
:101A10009C810E94422A18162CF4A1E0A9AF02C0B2
:101A200091E099AF8091070190910801A09109017F
:101A3000B0910A018D839E83AF83B887A09125035F
:101A4000B0912603BE8BAD8BE0913503F091360348
:101A5000F88FEF8B2091AF023091B0023A8F298F2F
:101A600080913F03909140039C8F8B8FA09117032F
:101A7000B0911803BE8FAD8FE091B804F091B90416
:101A8000F8A3EF8F2091AD023091AE023AA329A3C3
:101A900080912103909122039CA38BA3A091230307
:101AA000B0912403BEA3ADA3E0913703F0913803B6
:101AB000F8A7EFA32091BC043091BD043AA729A751
:101AC0008091190390911A039CA78BA7A091D3032F
:101AD000B091D403BEA7ADA7E0917403F091750354
:101AE000F8ABEFA720910004309101043AAB29AB89
:101AF00080911103909112039CAB8BABA4E0B0E0FA
:101B0000BC8BAB8B212C312C812C912CC101032C53
:101B1000000CAA0BBB0B8DAB9EABAFABB8AFB40147
:101B2000092C000C880B990B0E94532929813A81BA
:101B30004B815C810E9433280E941B2969877A8728
:101B40008B879C876DA97EA98FA998AD0E94532988
:101B5000A30192010E9433280E941B296D877E8772
:101B60008F87988BAD80BE80CF80D884ED88FE882B
:101B70000F89188D298D3A8D4B8D5C8D69857A85FD
:101B80008D859E850E94E202892BC9F5ED8CFE8C25
:101B90000F8D18A129A13AA14BA15CA169857A8575
:101BA0008D859E850E94E202892B61F5EDA0FEA045
:101BB0000FA118A529A53AA54BA55CA569857A852D
:101BC0008D859E850E94E202892BF9F4EDA4FEA486
:101BD0000FA518A929A93AA94BA95CA969857A85F5
:101BE0008D859E850E94E202892B91F4BFEF8B1AAE
:101BF0009B0AE5E08E16910409F091CF0BC0F1E04D
:101C0000F9AF08C021E029AF05C031E039AF02C00B
:101C100081E089AF9FEF291A390AA5E02A1631041D
:101C200009F072CFAB89BC891197BC8BAB8BAB2B06
:101C300009F068CF0EEB14E0812C912CE989FA8928
:101C4000E815F90511F1D8012D913D914D915C9167
:101C5000C301B2010E9432280E941B296C5F7F4F92
:101C60006930710590F4F8012481358146815781EE
:101C700069817A818B819C810E9432280E941B2974
:101C80006C5F7F4F6930710550F0FFEF8F1A9F0A2C
:101C9000075F1F4F25E08216910481F602C031E0F4
:101CA00039AF89ADE9960FB6F894DEBF0FBECDBF50
:101CB000DF91CF911F910F91FF90EF90DF90CF9028
:101CC000BF90AF909F908F907F906F905F904F905C
:101CD0003F902F900895CF92DF92EF92FF920F9353
:101CE0001F93CF93DF93853091050CF067C08C0173
:101CF0000E94422C2EE4E22EF12CB7010E94912B7F
:101D0000BC01990F880B990B0E9453290E94B42A99
:101D100029E0209FE001219FD00D1124C254DB4F08
:101D2000688379838A839B830E94422CB7010E9437
:101D3000912BBC01990F880B990B0E9453290E948B
:101D4000B42A6C837D838E839F833FE4E32EF12C42
:101D50006E0184E0C80ED11C0E949F0C882321F1E3
:101D60000E94422CB7010E94912BBC01990F880B55
:101D7000990B0E9453290E94B42A688379838A832D
:101D80009B830E94422CB7010E94912BBC01990FAA
:101D9000880B990B0E9453290E94B42AF601608394
:101DA000718382839383D8CF89E0809FF001819FE4
:101DB000F00D1124E254FB4F81E08087DF91CF9139
:101DC0001F910F91FF90EF90DF90CF900895CF92E9
:101DD000DF92EF92FF920F931F93CF93DF93CEEB9F
:101DE000D4E000E010E080919502909196020817EF
:101DF0001907E4F488858823A9F06C817D818E81A0
:101E00009F810E941B296B017C01688179818A81F5
:101E10009B810E941B29DC01CB0121E043E6B60136
:101E20000E94C3230F5F1F4F2996DDCFDF91CF9113
:101E30001F910F91FF90EF90DF90CF9008952F9218
:101E40003F924F925F926F927F928F929F92AF924A
:101E5000BF92CF92DF92EF92FF920F931F93CF9397
:101E6000DF93CDB7DEB72F970FB6F894DEBF0FBE66
:101E7000CDBF4090CA035090CB036090CC037090CC
:101E8000CD0320E030E040E85FE3C301B2010E94EF
:101E90009F2887FD0EC021E0298320E030E04EE935
:101EA00052E4C301B2010E94422A181624F019829A
:101EB00002C081E089838091CE039091CF03A091ED
:101EC000D003B091D1038A839B83AC83BD8320E090
:101ED00030E040E151E4BC01CD010E949F2887FD24
:101EE0000FC020E030E04CE252E46A817B818C81BB
:101EF0009D810E94422A18162CF4A1E0A98302C0F9
:101F000091E099838091070190910801A0910901C6
:101F1000B0910A018E839F83A887B987AEEDB3E0A5
:101F2000BF87AE87EE85FF85E680F7800481158147
:101F300022803380808091806A817B818C819D8129
:101F40000E941B296A877B878C879D87C301B2010A
:101F50000E941B29DC01CB01AE80BF80C884D984DC
:101F60009101A4016A857B850E94E202892B49F4D4
:101F70008E859F8508969F878E878E5F934091F60A
:101F800002C0B1E0B98389812F960FB6F894DEBF05
:101F90000FBECDBFDF91CF911F910F91FF90EF90BA
:101FA000DF90CF90BF90AF909F908F907F906F9079
:101FB0005F904F903F902F900895CF93DF93809143
:101FC000D203811136C00E94422CCFE4D0E0BE0182
:101FD0000E94912BBC01990F880B990B0E945329E9
:101FE0000E94B42A6093CA037093CB038093CC03FE
:101FF0009093CD030E94422CBE010E94912BBC0104
:10200000990F880B990B0E9453290E94B42A609360
:10201000CE037093CF038093D0039093D1030E949B
:102020001F0F882319F00E94422CD1CF81E08093AA
:10203000D203DF91CF910895CF92DF92EF92FF927A
:102040008091D203882309F16091CE037091CF0370
:102050008091D0039091D1030E941B296B017C01D8
:102060006091CA037091CB038091CC039091CD0312
:102070000E941B29DC01CB0121E044E6B601FF9060
:10208000EF90DF90CF900C94C323FF90EF90DF9000
:10209000CF9008958F929F92AF92BF92CF92DF928E
:1020A000EF92FF92CF93E0909302F090940289E038
:1020B0008E9DF0018F9DF00D1124E95BFC4F808017
:1020C0009180A280B38020E030E040E85FE3C5016A
:1020D000B4010E949F28C1E087FD0BC020E030E0E2
:1020E0004EE952E4C501B4010E94422A18160CF0D0
:1020F000C0E089E08E9DF0018F9DF00D1124E95B19
:10210000FC4FC480D580E680F78020E030E040E1DD
:1021100051E4C701B6010E949F2887FD0AC020E054
:1021200030E04CE252E4C701B6010E94422A181680
:102130000CF4C1E08C2FCF91FF90EF90DF90CF9007
:10214000BF90AF909F908F9008956F927F928F92E3
:102150009F92AF92BF92CF92DF92EF92FF920F9336
:102160001F93CF93DF93853091050CF04CC03C0159
:1021700020E030E040E85FE360910B0170910C01DA
:1021800080910D0190910E010E9432286B017C011B
:1021900089E0869DE001879DD00D1124C95BDC4F4D
:1021A000C882D982EA82FB8220E030E040E85FE327
:1021B00060910F01709110018091110190911201B5
:1021C0000E9432284B015C016C837D838E839F8348
:1021D0008E010C5F1F4F0E944A10882351F0C88265
:1021E000D982EA82FB82F80180829182A282B38244
:1021F000F2CF89E0869DF001879DF00D1124E95B07
:10220000FC4F81E08087DF91CF911F910F91FF906C
:10221000EF90DF90CF90BF90AF909F908F907F9086
:102220006F900895CF92DF92EF92FF920F931F93DA
:10223000CF93DF93C7E4D3E000E010E080919302F6
:102240009091940208171907E4F488858823A9F06F
:102250006C817D818E819F810E941B296B017C0195
:10226000688179818A819B810E941B29DC01CB01D5
:1022700021E04FE6B6010E94C3230F5F1F4F29964E
:10228000DDCFDF91CF911F910F91FF90EF90DF9005
:10229000CF9008951816190614F129E0289FF0012F
:1022A000299FF00D1124EB52FC4F80910B0190916E
:1022B0000C01A0910D01B0910E0180839183A28346
:1022C000B38380910F0190911001A0911101B09101
:1022D000120184839583A683B78381E08087089564
:1022E000CF92DF92EF92FF920F931F93CF93DF93E2
:1022F000C5EDD3E000E010E080918F029091900254
:1023000008171907E4F488858823A9F06C817D817A
:102310008E819F810E941B296B017C0168817981DC
:102320008A819B810E941B29DC01CB0121E04DE6C3
:10233000B6010E94C3230F5F1F4F2996DDCFDF91A7
:10234000CF911F910F91FF90EF90DF90CF90089564
:102350001F93CF93DF93C4E0D4E011E0888581110F
:102360001DC060919A0370919B03072E000C880B8F
:10237000990B0E945329688379838A839B83609198
:102380009C0370919D03072E000C880B990B0E94F3
:1023900053296C837D838E839F831887299684E0DD
:1023A000C83BD807D9F681E090E090938E028093E5
:1023B0008D02DF91CF911F91089518990C94A81167
:1023C00008952F923F924F925F926F927F928F92D9
:1023D0009F92AF92BF92CF92DF92EF92FF920F93B4
:1023E0001F93CF93DF93CDB7DEB7AA970FB6F894BC
:1023F000DEBF0FBECDBF84E094E09AA789A7A9A550
:10240000BAA518968C91811121C0E9A5FAA5399633
:10241000FAA7E9A7E85BF44091F7AA960FB6F894FB
:10242000DEBF0FBECDBFDF91CF911F910F91FF9007
:10243000EF90DF90CF90BF90AF909F908F907F9064
:102440006F905F904F903F902F9008950E94422C84
:1024500062E070E00E94912B019709F042C0C090A9
:102460000B01D0900C01E0900D01F0900E01A9A598
:10247000BAA54D905D906D907C90A3019201C7012B
:10248000B6010E949F2887FDC0C1A3019201C70128
:10249000B6010E94422A18160CF4C4C1E9A5FAA597
:1024A000C480D580E680F780A701960160910F0176
:1024B0007091100180911101909112010E949F284A
:1024C00087FF22C020E030E040E85FE3C701B601AB
:1024D0000E943228E9A5FAA56483758386839783D1
:1024E00023C0A9A5BAA52D913D914D915C91609114
:1024F0000B0170910C0180910D0190910E010E94D1
:102500009F2887FD82C18EC120E030E040E85FE374
:10251000C701B6010E943328A9A5BAA514966D93E8
:102520007D938D939C9317974090070150900801DD
:102530006090090170900A01A9A5BAA514968D9121
:102540009D910D90BC91A02D8D839E83AF83B88704
:10255000BC01CD010E941B2969837A838B839C83F4
:10256000E981FA81FE87ED87A9A5BAA58D919D9194
:102570000D90BC91A02D89879A87AB87BC87BC0141
:10258000CD010E941B29DC01CB011C01E090250339
:10259000F090260300913503109136032091AF028D
:1025A0003091B00240913F035091400363015201CA
:1025B00069817A810E94E202988B8F87E0911703EC
:1025C000F0911803FA8BE98B8091B8049091B904CB
:1025D0009C8B8B8BA091AD02B091AE02BE8BAD8B6C
:1025E000E0912103F0912203F88FEF8B8091230378
:1025F000909124039A8F898FA0913703B09138036B
:10260000BC8FAB8FE091BC04F091BD04FE8FED8FC9
:102610008091190390911A0398A38F8FA091D303EF
:10262000B091D403BAA3A9A3E0917403F091750308
:10263000FCA3EBA380910004909101049EA38DA3C1
:10264000A0911103B0911203B8A7AFA380908D029F
:1026500090908E02E4E0F0E0FA83E9838F85988918
:10266000892B09F05FC063015201E988FA880B8960
:102670001C892D893E894F89588D6D857E85C101C4
:102680000E94E202892B09F04DC0E98CFA8C0B8D77
:102690001C8D2D8D3E8D4F8D58A16D857E85C10180
:1026A0000E94E202892B09F03DC0E9A0FAA00BA12B
:1026B0001CA12DA13EA14FA158A56D857E85C1010C
:1026C0000E94E202892B71F520E030E0A9016985C2
:1026D0007A858B859C850E949F2818161CF520E022
:1026E00030E046EA52E469857A858B859C850E94B4
:1026F000422A1816BCF020E030E0A9016D817E81ED
:102700008F8198850E949F28181664F420E030E09D
:102710004CE352E46D817E818F8198850E94422A2C
:10272000181634F4A9A5BAA518961C92812C912CE0
:10273000E981FA813197FA83E983EF2B09F08ECF93
:10274000C0900B01D0900C01E0900D01F0900E01B3
:1027500040900F0150901001609011017090120193
:1027600006E713E0D8016D917C91072E000C880BD1
:10277000990B0E9453299B01AC0169857A858B8551
:102780009C850E949F28811125C0F8016281738178
:10279000072E000C880B990B0E9453299B01AC015A
:1027A0006D817E818F8198850E949F28811112C042
:1027B000A9A5BAA518961C92412C512C8CE1682E23
:1027C00082E4782EC12CD12C9EE9E92E92E4F92ED8
:1027D000812C912C0C5F1F4FB3E00A391B0711F6B7
:1027E00090928E0280928D02C0920B01D0920C01C9
:1027F000E0920D01F0920E0140920F0150921001F3
:10280000609211017092120100CE20E030E040E8A9
:102810005FE3E9A5FAA560817181828193810E94BD
:1028200032280CC020E030E040E85FE3E9A5FAA5DB
:1028300060817181828193810E943328A9A5BAA504
:102840006D937D938D939C9313976ECECF92DF9271
:10285000EF92FF92CF93DF93C4E0D4E08885882382
:10286000A1F06C817D818E819F810E941B296B016B
:102870007C01688179818A819B810E941B29DC010E
:10288000CB0141E0B6010E942822299684E0C83B92
:10289000D80721F7DF91CF91FF90EF90DF90CF9095
:1028A00008957D9B08C07D99FECF90918B0281E0B9
:1028B000892780938B0208958F929F92AF92BF9247
:1028C000CF92DF92EF92FF920F931F93CF93DF93FC
:1028D000EEEDF3E082E1C82ED12CD182C0829FE0E0
:1028E000E92EF12CF382E2820DE010E015830483DF
:1028F00089E190E09783868391878087C3E2D0E067
:10290000D387C287958784874DE250E057874687F3
:10291000518B408B2AE030E0338B228BACE3B0E06C
:10292000B58BA48B378B268B6AE370E0718F608F39
:10293000938F828F0F2EF8E4AF2EB12CF02DB58E31
:10294000A48E0F2EFEE18F2E912CF02D978E868E69
:10295000D0924003C0923F03F092B002E092AF02E7
:102960001093360300933503909326038093250339
:102970009093220380932103D093AE02C093AD02C3
:102980009093B9048093B8045093180340931703AD
:1029900050931A03409319033093BD042093BC0451
:1029A000B0933803A0933703309324032093230379
:1029B00070931203609311039093010480930004B9
:1029C000B0927503A09274039092D4038092D303C3
:1029D000DF91CF911F910F91FF90EF90DF90CF90FB
:1029E000BF90AF909F908F900895AF92BF92CF927B
:1029F000DF92EF92FF920F931F93CF93DF9380911B
:102A0000990290919A02029709F09BC06FE070E0E2
:102A10007093DF036093DE037093E1036093E00340
:102A200082E1C82ED12CD092E303C092E20349E1A7
:102A300050E05093E5034093E40383E290E09093E9
:102A4000E7038093E6039093E9038093E8035093B0
:102A5000EB034093EA032DE2E22EF12CF092ED031A
:102A6000E092EC0308E210E01093EF030093EE0312
:102A7000CBE0D0E0D093F103C093F003ACE3B0E03F
:102A8000B093F303A093F203EDE0F0E0F093F503CD
:102A9000E093F4032AE330E03093F7032093F60346
:102AA0000F2EFEE1AF2EB12CF02DB092F903A092C3
:102AB000F8033093FB032093FA039093FD03809374
:102AC000FC037093400360933F037093B0026093E4
:102AD000AF02D0923603C092350350932603409341
:102AE000250390932203809321039093AE02809359
:102AF000AD025093B9044093B804F0921803E092E9
:102B0000170310931A0300931903D093BD04C093C5
:102B1000BC04B0933803A0933703F0932403E093ED
:102B200023033093120320931103B0920104A09267
:102B3000000430937503209374039093D40380931F
:102B4000D303DF91CF911F910F91FF90EF90DF9012
:102B5000CF90BF90AF90089580918B0281111FC2DA
:102B600080919B0290919C0220913F033091400301
:102B7000280F391F3093400320933F03253531053B
:102B800000F12091DE033091DF0330934003209366
:102B90003F032091E0033091E1033093B002209392
:102BA000AF022091E2033091E30330933603209388
:102BB00035032091E4033091E503309326032093FD
:102BC00025032091AF023091B002280F391F3093B6
:102BD000B0022093AF022133310500F12091DE03D2
:102BE0003091DF033093400320933F032091E003B3
:102BF0003091E1033093B0022093AF022091E203C1
:102C00003091E30330933603209335032091E4039E
:102C10003091E5033093260320932503209135035B
:102C200030913603280F391F309336032093350334
:102C30002535310500F12091DE033091DF0330931B
:102C4000400320933F032091E0033091E103309350
:102C5000B0022093AF022091E2033091E30330935E
:102C60003603209335032091E4033091E50330933C
:102C70002603209325032091250330912603280F56
:102C8000391F30932603209325032133310500F1AA
:102C90002091DE033091DF033093400320933F0304
:102CA0002091E0033091E1033093B0022093AF0212
:102CB0002091E2033091E3033093360320933503F0
:102CC0002091E4033091E5033093260320932503FC
:102CD0002091210330912203280F391F30932203C2
:102CE000209321032535310500F12091E603309131
:102CF000E70330932203209321032091E8033091CE
:102D0000E9033093AE022093AD022091EA033091A3
:102D1000EB033093B9042093B8042091EC03309175
:102D2000ED0330931803209317032091B8043091DA
:102D3000B904280F391F3093B9042093B8042535FE
:102D4000310500F12091E6033091E703309322032F
:102D5000209321032091E8033091E9033093AE02E0
:102D60002093AD022091EA033091EB033093B90434
:102D70002093B8042091EC033091ED0330931803B5
:102D8000209317032091BC043091BD04280F391FF4
:102D90003093BD042093BC042133310500F1209110
:102DA000EE033091EF0330931A032093190320911F
:102DB000F0033091F1033093BD042093BC042091C3
:102DC000F2033091F30330933803209337032091BB
:102DD000F4033091F50330932403209323032091CF
:102DE000230330912403280F391F309324032093A9
:102DF00023032133310500F12091EE033091EF03DD
:102E000030931A03209319032091F0033091F103BA
:102E10003093BD042093BC042091F2033091F3035E
:102E200030933803209337032091F4033091F50356
:102E30003093240320932303209111033091120334
:102E4000281B390B309312032093110325353105CC
:102E500000F12091F6033091F70330931203209391
:102E600011032091F8033091F9033093010420936A
:102E700000042091FA033091FB03309375032093F3
:102E800074032091FC033091FD033093D40320930D
:102E9000D3032091000430910104280F391F30938F
:102EA0000104209300042133310500F12091F60341
:102EB0003091F70330931203209311032091F8030C
:102EC0003091F90330930104209300042091FA0318
:102ED0003091FB0330937503209374032091FC031E
:102EE0003091FD033093D4032093D30320917403D6
:102EF00030917503281B390B3093750320937403AD
:102F00002535310500F12091F6033091F703309318
:102F10001203209311032091F8033091F9033093A9
:102F20000104209300042091FA033091FB033093B5
:102F30007503209374032091FC033091FD033093BB
:102F4000D4032093D3032091D3033091D403820F71
:102F5000931F9093D4038093D303C19700F1809182
:102F6000F6039091F70390931203809311038091DD
:102F7000F8039091F90390930104809300048091E9
:102F8000FA039091FB0390937503809374038091EF
:102F9000FC039091FD039093D4038093D303089591
:102FA0000F932091250330912603409135035091D2
:102FB00036036091AF027091B00201E080913F034F
:102FC000909140030E9461222091170330911803D1
:102FD0004091B8045091B9046091AD027091AE0275
:102FE00080912103909122030E946122209123036A
:102FF0003091240340913703509138036091BC0411
:103000007091BD048091190390911A030E9461226E
:103010002091D3033091D4034091740350917503F0
:10302000609100047091010480911103909112034A
:103030000E9461220F91089521E04CE251E069E085
:1030400070E080E090E00E94292421E048E351E014
:1030500062E170E080E090E00E94292421E042E4F7
:1030600051E06BE170E080E090E00E9429240E9432
:103070000D227D9BFECF0E9420228091990290918B
:103080009A02019690939A028093990208957E9BEA
:103090001DC07E99FECF8091990290919A0201966F
:1030A00090939A028093990210929802109297023C
:1030B00085E090E09093200180931F01109296028A
:1030C000109295021092940210929302089585B581
:1030D000877F85BD85B5846085BD85B58D7F85BDC0
:1030E00085B5816085BDEEE6F0E0808181608083FA
:1030F0000895E1E8F0E08081877F808380818F7E82
:10310000808380818460808380818D7F80838081C3
:103110008E7F8083EFE6F0E0808181608083089578
:10312000E1E9F0E08081877F808380818F7E8083EA
:1031300080818B7F808380818260808380818160B9
:103140008083E1E7F0E080818160808308951F92B1
:103150000F920FB60F9211248F939F9380918B0241
:10316000811110C08091990290919A021816190647
:103170004CF48091A7029091A80201969093A80226
:103180008093A7029F918F910F900FBE0F901F9079
:1031900018951F920F920FB60F9211242F933F9301
:1031A0004F935F936F937F938F939F93AF93BF934F
:1031B000EF93FF9380918B0281119BC080919902C4
:1031C00090919A02181619060CF093C08091A302F0
:1031D0009091A402A091A502B091A6020196A11D12
:1031E000B11D8093A3029093A402A093A502B09373
:1031F000A6028091950290919602853091055CF42B
:103200000E946B0E80919502909196020196909388
:103210009602809395028091A3029091A402A091BE
:10322000A502B091A60280FF12C0809193029091F6
:103230009402853091055CF40E94A5108091930260
:1032400090919402019690939402809393028091BE
:10325000990290919A0202970CF44BC080918F02D0
:10326000909190021816190624F120918A022111DA
:1032700020C04091A3025091A4026091A5027091D8
:10328000A602443051056105710598F00E944A116B
:1032900080918F029091900201969093900280937A
:1032A0008F021092A3021092A4021092A502109213
:1032B000A60280918A028823E1F02A9A2B9A8091B3
:1032C000A3029091A402A091A502B091A602079733
:1032D000A105B10570F010928A020E9488092B980E
:1032E0002A981092A3021092A4021092A5021092A2
:1032F000A602FF91EF91BF91AF919F918F917F9126
:103300006F915F914F913F912F910F900FBE0F9052
:103310001F9018951F920F920FB60F9211242F93A2
:103320003F934F935F936F937F938F939F93AF934D
:10333000BF93EF93FF9380918B02811115C0809111
:103340009F029091A002A091A102B091A2020196C9
:10335000A11DB11D80939F029093A002A093A10292
:10336000B093A2020E94AC15FF91EF91BF91AF9173
:103370009F918F917F916F915F914F913F912F918D
:103380000F900FBE0F901F90189580E880936100FA
:1033900081E0809361008FE30E949B020E949C2445
:1033A000229A239A20982198279850985198869885
:1033B0008598229A0E9467180E9479180E94901896
:1033C00078940E94F3210E94F01D0E94091E882318
:1033D000E1F30E9488090E944B0C0E9429060E947A
:1033E00021070E945C1410929A0210929902109286
:1033F00098021092970285E090E0909320018093CC
:103400001F0110929602109295021092940210924F
:1034100093021092920210929102109290021092D6
:103420008F0210928E0210928D021092C60410929A
:10343000CF041092D8041092E1041092EA04109282
:103440004F03109258031092610310926A03109276
:1034500073031092D20310928B0208951F93CF939F
:10346000DF93D82FC62FCA01122F2CE330E0B90109
:103470000E94912B9F938F93CB01B9010E94912BB6
:103480009F938F938EE491E09F938F931F9286E09A
:103490008F9389E393E09F938F930E947C2D8DB748
:1034A0009EB70A960FB6F8949EBF0FBE8DBF6C2FC5
:1034B00070E0212F49E353E08D2F90E0DF91CF9111
:1034C0001F910C9429241F93CF93DF93D82FC62FDD
:1034D000122F5F934F9388E591E09F938F931F92F4
:1034E00088E08F9389E293E09F938F930E947C2DD5
:1034F0008DB79EB708960FB6F8949EBF0FBE8DBFCE
:103500006C2F70E0212F49E253E08D2F90E0DF9186
:10351000CF911F910C942924CF92DF92EF92FF92CA
:103520000F931F93CF930091A7021091A802C6B5E5
:1035300021E04BE551E060E070E080E090E00E9427
:1035400029244091990250919A0221E060E08FE095
:103550000E94631A21E04FE551E060E070E085E1F0
:1035600090E00E94292440911F015091200121E008
:1035700060E080E20E94631A21E042E651E060E0F0
:1035800070E087E290E00E942924409197025091D8
:10359000980221E060E081E30E94631AB801110FF4
:1035A000880B990B0E94532920E030E040E853E457
:1035B0000E94472A6B017C016C2F70E080E090E054
:1035C0000E9453299B01AC01C701B6010E94332818
:1035D00020E030E040E854E40E94472A20E034E252
:1035E00044EF5AE40E94A9280E941B2921E0AB0164
:1035F00060E088E30E942E1A01E028E030E044E514
:1036000050E068E070E080E090E00E9461220E945B
:10361000340A0E940E070E94E70E0E941C100E94AE
:1036200012110E9426140E9470110E945A0CCF9110
:103630001F910F91FF90EF90DF90CF900C94D017D7
:10364000FC0101900020E9F73197BF01681B790B5D
:103650000C94BB1ECF92DF92EF92FF920F931F93B9
:10366000CF93DF93CDB7DEB7C855D2400FB6F894ED
:10367000DEBF0FBECDBF0E940C1E8C0181369105AE
:10368000D9F480918A02811183C180919A0390912B
:103690009B03181619066CF4EAE9F3E02AEC33E010
:1036A0008081918101979183808334962E173F0703
:1036B000B9F71F9281E61DC08436910599F5809176
:1036C0008A0281116FC180919A0390919B038F347C
:1036D00091056CF4EAE9F3E02AEC33E08081918112
:1036E00001969183808334962E173F07B9F71F9276
:1036F00084E68F9380E791E09F938F9382E08F938E
:1037000088E58F93CE0101967C019F938F930E9451
:103710007C2DC7010E94201B0FB6F894DEBF0FBEA0
:10372000CDBF77C08737910591F580918A028111CD
:1037300043C180919C0390919D030A976CF0EAE944
:10374000F3E02AEC33E082819381019793838283B3
:1037500034962E173F07B9F71F9287E78F9380E7BC
:1037600091E09F938F9382E08F9388E58F93CE01B2
:1037700001967C019F938F930E947C2DC7010E942C
:10378000201B0FB6F894DEBF0FBECDBF51C08337EC
:10379000910589F580918A02811118C180919C035D
:1037A00090919D038B9764F4EAE9F3E08281938121
:1037B000019693838283349693E0EA3CF907B1F74C
:1037C0001F9283E78F9380E791E09F938F9382E02E
:1037D0008F9388E58F93CE0101967C019F938F9301
:1037E0000E947C2DC7010E94201B0FB6F894DEBFFB
:1037F0000FBECDBF39C08636910559F4809197022E
:1038000090919802039714F00E94A8111F9286E6E7
:103810001AC00C36110561F48091990290919A02B8
:10382000019690939A02809399021F928CE60BC0A6
:1038300000371105C9F490918B0281E089278093AC
:103840008B021F9280E78F9380E791E09F938F9385
:1038500082E08F9388E58F938E010F5F1F4F1F9338
:103860000F930E947C2D8BC00936110509F0B8C05A
:103870006091A7027091A80216B5072E000C880B64
:10388000990B0E94532920E030E040E853E40E9465
:10389000472A6B017C01612F70E080E090E00E947C
:1038A00053299B01AC01C701B6010E94332820E0D7
:1038B00030E040E854E40E94472A20E034E244EF3C
:1038C0005AE40E94A9280E941B292CE330E0CB0176
:1038D000B9010E94912BFC01CB01B9010E94912BEF
:1038E00020918B02211103C04AE651E002C045E657
:1038F00051E020918A02211103C02AE631E002C082
:1039000025E631E060919702709198025F934F93A2
:103910003F932F937F936F93209196022F93209143
:1039200095022F93209194022F93209193022F932D
:1039300020918E022F9320918D022F937F936F936E
:10394000209120012F9320911F012F9320919A0203
:103950002F93209199022F93FF93EF939F938F932F
:1039600080E891E09F938F9382E08F9388E58F9317
:103970008E010F5F1F4F1F930F930E947C2DC80174
:103980000E94201B0FB6F894DEBF0FBECDBF28C02B
:103990008091310390913203019790933203809389
:1039A000310387CE80913103909132030196909339
:1039B0003203809331039BCE809133039091340383
:1039C00001979093340380933303C6CE80913303E1
:1039D0009091340301969093340380933303F0CE97
:1039E000C85ADD4F0FB6F894DEBF0FBECDBFDF91D2
:1039F000CF911F910F91FF90EF90DF90CF9008959E
:103A00000E942F1E81110C942A1B089580E00E94B1
:103A1000F72190931C0380931B0381E00E94F72100
:103A20009093FF038093FE030E944B0A0E9480093B
:103A30008091970290919802059714F00E94DD0FF3
:103A40000E94BE038823E9F01092D203809199026C
:103A500090919A02019690939A0280939902109203
:103A600098021092970285E090E090932001809355
:103A70001F011092960210929502109294021092D9
:103A800093028091970290919802039714F00E94FC
:103A9000DD110E9447188091990290919A02029735
:103AA00014F00E94001D80918A02882399F0EAE9AF
:103AB000F3E08FEF9FEF918380839383828334962B
:103AC00023E0EA3CF207B9F70E946B0C0E949C04C9
:103AD0000E945C030E9412040E94D6090E940F05F6
:103AE0000E9492050E94E1110E9451148091FE03F0
:103AF0009091FF038E3E22E092071CF082E090E05E
:103B000011C0843F21E092071CF081E090E00AC0E0
:103B10008A3F91051CF08FEF9FEF04C097FD06C010
:103B20008EEF9FEF90939C0280939B0280911F01E8
:103B3000909120011816190634F480919902909101
:103B40009A0203971CF081E080938C0280918C0292
:103B5000882389F00E94202221E04EE752E069E0AC
:103B600070E080E090E00E9429247D9B04C07D9B52
:103B7000FECF10928C0208950E94C5190E941C1855
:103B800080918C02811109C00E9420220E948C1A0F
:103B90000E94061D0E940D22F3CF80E090E0089560
:103BA000CF93DF93CDB7DEB79E01215F3F4F4D85A9
:103BB0005E856B857C8589859A850E94AC2D21E088
:103BC00049855A856F8178858D819E810E9429243F
:103BD000DF91CF9108958091E80080FFFCCF089598
:103BE00081E08093D70080EA8093D80082E189BD8C
:103BF00009B400FEFDCF80E98093D8001092E00068
:103C00001092AC021092A9028CE08093E2007894AA
:103C100008958091AC0208959FB7F8948091AC020A
:103C2000882369F083E08093E9002BE68091E80027
:103C300085FD09C082FF03C02093E800F7CF9FBF36
:103C40008FEF9FEF08958091F1002091E80025FD0E
:103C500003C02BE62093E8009FBF90E008952FB7A4
:103C6000F8948091AC02811102C080E010C083E022
:103C70008093E9008091F200811109C09091E800E1
:103C800092FFF3CF95FDF1CF9BE69093E8002FBF15
:103C900008958091AC02882371F08FB7F89493E077
:103CA0009093E9002BE69091E80095FF03C02093E4
:103CB000E800F9CF8FBF08959091AC02992371F07D
:103CC0009FB7F89424E02093E9002091AA022223D0
:103CD00049F02091E80025FD03C09FBF8FEF0895B4
:103CE0001092AA022091E400275E34E04091E8009F
:103CF00045FD12C09FBF9091E400291304C081E0EC
:103D00008093AA02EBCF9091AC02992339F39FB72D
:103D1000F8943093E900EACF8093F1008091E800B5
:103D200085FD03C08AE38093E80085E08093AB02C1
:103D30009FBF80E008959091AC029923D1F09FB786
:103D4000F89424E02093E9002091E80025FD02C0CA
:103D50009FBF0FC08093F1008091E80085FD03C0F4
:103D60008AE38093E80085E08093AB029FBF80E008
:103D700008958FEF08950F931F93CF93DF93DC0186
:103D8000CB012091AC02222371F02FB7F89434E0DC
:103D90003093E9003091AA02332349F03091E800D2
:103DA00035FD03C02FBF8FEF43C11092AA02C4E0BC
:103DB000D0E41AE305E0009709F439C13091E4003A
:103DC000375E4091E80045FD12C02FBF2091E4000E
:103DD000321304C081E08093AA02E5CF2091AC02A7
:103DE000222309F32FB7F894C093E900EACF30916A
:103DF000F200ED2FE31B4E2F50E08417950708F4D7
:103E0000E82F8E1B91094E2F50E04134510508F0E8
:103E100001C1FA01EA5AFF4F0C94A52B3C91309353
:103E2000F10011963C913093F10011963C91309342
:103E3000F10011963C913093F10011963C91309332
:103E4000F10011963C913093F10011963C91309322
:103E5000F10011963C913093F10011963C91309312
:103E6000F10011963C913093F10011963C91309302
:103E7000F10011963C913093F10011963C913093F2
:103E8000F10011963C913093F10011963C913093E2
:103E9000F10011963C913093F10011963C913093D2
:103EA000F10011963C913093F10011963C913093C2
:103EB000F10011963C913093F10011963C913093B2
:103EC000F10011963C913093F10011963C913093A2
:103ED000F10011963C913093F10011963C91309392
:103EE000F10011963C913093F10011963C91309382
:103EF000F10011963C913093F10011963C91309372
:103F0000F10011963C913093F10011963C91309361
:103F1000F10011963C913093F10011963C91309351
:103F2000F10011963C913093F10011963C91309341
:103F3000F10011963C913093F10011963C91309331
:103F4000F10011963C913093F10011963C91309321
:103F5000F10011963C913093F10011963C91309311
:103F6000F10011963C913093F10011963C91309301
:103F7000F10011963C913093F10011963C913093F1
:103F8000F10011963C913093F10011963C913093E1
:103F9000F10011963C913093F10011963C913093D1
:103FA000F10011963C913093F10011963C913093C1
:103FB000F10011963C913093F10011963C913093B1
:103FC000F10011963C913093F10011963C913093A1
:103FD000F10011963C913093F10011963C91309391
:103FE000F10011963C913093F10011963C91309381
:103FF000F10011963C913093F10011963C91309371
:10400000F10011963C913093F10011963C91309360
:10401000F10011963C913093F10011963091E80037
:1040200035FF1093E8000093AB022FBFC4CE80E0B1
:10403000DF91CF911F910F9108958FB7F8949091D0
:10404000AB02992341F094E09093E9009AE39093B6
:10405000E8001092AB028FBF08956091210170912A
:1040600022018091230190912401089580912501DE
:1040700008958091260108958091270108958091E7
:10408000A90208959FB7F8942091AC02222339F039
:1040900022E02093E9002091E80025FD03C09FBFA6
:1040A0008FEF089521EA2093F10020E22093F100A0
:1040B0001092F1001092F1001092F1001092F100B4
:1040C00021E02093F1001092F1008093F1008AE347
:1040D0008093E8009FBF80E008951F920F920FB673
:1040E0000F9211248F939F938091E1001092E10031
:1040F00083FF11C01092E90091E09093EB001092C1
:10410000EC0092E19093ED0098E09093F000109213
:10411000AC021092A90282FF13C08091AC028823E6
:1041200079F08091AB02882359F081508093AB02E3
:10413000811106C084E08093E9008AE38093E8005F
:104140009F918F910F900FBE0F901F9018951F9207
:104150000F920FB60F921124FF920F931F932F937C
:104160003F934F935F936F937F938F939F93AF93FF
:10417000BF93CF93DF93EF93FF931092E900809169
:10418000E80083FF17C1F090F1008091F1000091E9
:10419000F1009091F10010E0192BC091F100909185
:1041A000F100D0E0D92B2091F1006091F10092EF65
:1041B0009093E800863009F049C08EE492E048E729
:1041C00052E0FC01A591B4910A171B07D9F4FC0138
:1041D0003296A591B491CA17DB07A1F4FC0134967D
:1041E00045915491FC013696849130E0362B2F3F57
:1041F000310519F010F02FEF30E0281708F4822F66
:104200003EEF0CC0079648175907D9F6D3C0490F9F
:10421000511D891B3093E8008823A9F09091E80094
:10422000292F2570D9F392FDC8C0982F813108F04D
:1042300090E1FA01292F222351F364916093F10058
:1042400021503196F8CF903149F3B7C0853049F409
:104250008EEF8093E8000E94EB1D00680093E3005E
:10426000ACC0893059F5F110A5C00093AC02109292
:10427000A9021092AB028EEF8093E80041E08DE03E
:1042800093E04093E9009C012F5F3F4FFC01549164
:104290005093EB00552359F0F90124912093EC0041
:1042A0009C012D5F3F4F3196E491E093ED004F5F0D
:1042B000453011F0C901E5CF8EE177C0883051F467
:1042C000F0E8FF1277C00E94EB1D8091AC02809352
:1042D000F10049C0813281F481EAF8126BC00E947A
:1042E000EB1DE1E2F1E088E291E021912093F10001
:1042F0008E179F07D1F737C08032A9F491E2F912E7
:1043000059C08091E80082FFFCCFE1E2F1E088E251
:1043100091E02091F10021938E179F07D1F78BEF49
:104320008093E80020C0823241F4E1E2FE1242C0F4
:104330000093A9020E94EB1D16C0811118C00E94B3
:10434000EB1DF2E8FF120AC0C093E9008091EB0078
:1043500085FB882780F91092E90001C080E08093F6
:10436000F1001092F1008EEF8093E80026C0982FA4
:104370009D7F9130F9F492E0F9121CC0012BD1F429
:10438000CF779FEF9C0F9430A8F49EEF9093E800B6
:10439000C093E900833071F089E18093EB0081E004
:1043A00090E001C0880FCA95EAF78093EA00109266
:1043B000EA0003C081E28093EB00FF91EF91DF916F
:1043C000CF91BF91AF919F918F917F916F915F91AD
:1043D0004F913F912F911F910F91FF900F900FBE22
:1043E0000F901F90189587E880937A000895982F72
:1043F0009F71906490937C00807280937B00809189
:104400007A00806480937A0080917A0086FDFCCFE8
:1044100080917800909179000895CF93DF9360E0C8
:1044200080E00E94A924CBEED4E0699181E00E9453
:104430004E2486E0C33ED807C1F7DF91CF9108959F
:10444000EBEEF4E0119286E0E33EF807D9F7089529
:1044500084359105A8F56033710590F59B0173E0F3
:10446000359527957A95E1F76770452BA1F044E5DE
:10447000429FF001439FF00D11248E0F9F1FFC01FE
:10448000E551FB4F81E090E001C0880F6A95EAF7A3
:104490009081892B14C044E5429FF001439FF00DA9
:1044A00011248E0F9F1FFC01E551FB4F81E090E02E
:1044B00001C0880F6A95EAF78095908189238083EF
:1044C00008952F923F924F925F926F927F928F92B8
:1044D0009F92AF92BF92CF92DF92EF92FF920F9393
:1044E0001F93CF93DF93CDB7DEB72E970FB6F89417
:1044F000DEBF0FBECDBF1C013B012A013A832983D9
:104500008417950771F57C836B8329813A81621644
:1045100073069CF48B819C81281739070CF41AC10F
:10452000A8016B817C81C1010E9428222B813C81E2
:104530002F5F3F4F3C832B83E8CFAB81BC81298128
:104540003A81A217B3070CF405C1A8016B817C81E5
:10455000C1010E9428228B819C8101979C838B83BF
:10456000D4CF89819A816817790751F53A822982D7
:10457000241435049CF4A981BA814A165B060CF414
:10458000E9C0A801B30189819A810E94282229816A
:104590003A812F5F3F4F3A832983EACF29813A81BD
:1045A000241535050CF4D6C0A801B30189819A8180
:1045B0000E942822A981BA811197BA83A983D8CFF2
:1045C0004215530554F4872D69807A8069838A8364
:1045D000922D832D1A01492E582EB20162197309AA
:1045E000072E000C880B990B0E9453296F83788744
:1045F00089879A8769817A8166197709072E000C65
:10460000880B990B0E9453294B015C012F8138853F
:1046100049855A850E94A9286B837C838D839E835C
:1046200020E030E0A9010E94422A87FF09C08B8167
:104630009C81AD81BE81B0588B839C83AD83BE834A
:10464000C12CD12C760120E030E0A9016F81788562
:1046500089859A850E94422A18160CF077C0421468
:1046600053040CF477C0A801B301C1010E942822B1
:104670002B813C814D815E81C701B6010E943328A8
:104680006B017C0120E030E040E05FE30E94422AC1
:1046900087FF10C020E030E0A9016F81788589850F
:1046A0009A850E94422A18160CF04CC09FEF291AD6
:1046B000390AC9CF20E030E0A901C501B4010E9448
:1046C000422A1816CCF529813A812615370514F3AC
:1046D000A801B301C1010E942822A1E0B0E0BC877B
:1046E000AB8720E030E0A901C501B4010E94422A55
:1046F000181614F01C861B8621E030E03E872D87BB
:1047000020E030E0A901C501B4010E949F2887FD87
:1047100002C01E861D868B859C85AD85BE858A1B45
:104720009B0B680E791E20E030E040E85FE3C70194
:10473000B6010E943228A4CF89819A816816790631
:104740003CF6A8CFA1E02A1A31087DCF2414350405
:104750000CF089CF2E960FB6F894DEBF0FBECDBFFA
:10476000DF91CF911F910F91FF90EF90DF90CF904D
:10477000BF90AF909F908F907F906F905F904F9081
:104780003F902F9008952F923F924F925F926F9299
:104790007F928F929F92AF92BF92CF92DF92EF92D1
:1047A000FF920F931F93CF93DF936C014B0119017D
:1047B00085E0489F20011124E12CF12C80EA481A61
:1047C000510866246394712CF201EE0DFF1DE95E21
:1047D000FC4FE4912114310409F4E09500E010E06D
:1047E000CE2FD0E05601AE0CBF1CA301002E02C09C
:1047F000440F551F0A94E2F74C235D23002E02C09C
:10480000559547950A94E2F7B401600F711FC501F1
:104810000E9428220F5F1F4F0830110531F78FEFDC
:10482000E81AF80A85E0E816F10471F6DF91CF91F5
:104830001F910F91FF90EF90DF90CF90BF90AF90BE
:104840009F908F907F906F905F904F903F902F90B0
:104850000895CF92DF92EF92FF920F931F93CF9321
:10486000DF937B018A016901D82FC0E0F801EC0FCA
:10487000F11D4081442349F09601B7018D2F90E04E
:104880000E94C323DB5FCF5FF1CFDF91CF911F91F8
:104890000F91FF90EF90DF90CF90089525B12F7D7D
:1048A00030E2839FC0011124822B85B95F9887E095
:1048B00090E070E08F989B01082E02C035952795F7
:1048C0000A94E2F720FF02C02E9A01C02E988F9A18
:1048D000019780F75F9A0895CF93C82F579A249A2B
:1048E000259A269A879A2C985F9A2C9A61E280E002
:1048F0000E944E246C2F606880E00E944E2464E089
:1049000080E00E944E2463E180E00E944E246CE02F
:1049100080E00E944E2460E280E00E944E246CE021
:1049200080E00E944E2460E480E00E944E2460E813
:1049300080E0CF910C944E24CF93DF93C8EFD1E069
:1049400060E081E00E944E242197D1F7DF91CF9162
:104950000895CF93C82F606480E00E944E246C2F8E
:10496000606880E0CF910C944E24A0E1B0E0EBEBC6
:10497000F4E20C94AB2B7C011B016A01FC01178251
:104980001682838181FF44C39E012F5F3F4F39010F
:10499000F7019381F10193FD859193FF81911F01AF
:1049A000882309F431C3853239F493FD859193FF4F
:1049B00081911F01853239F4B70190E00E94402DAA
:1049C00056016501E5CF10E0512C912CFFE1F9155E
:1049D000D8F08B3279F038F4803279F08332A1F458
:1049E000F92DF0612EC08D3261F0803369F4292DEC
:1049F00021602DC0392D3260932E892D8460982E30
:104A00002AC0E92DE86015C097FC2DC020ED280FC5
:104A10002A3088F496FE06C03AE0139F200D112438
:104A2000122F19C08AE0589E200D1124522EE92D14
:104A3000E0629E2E10C08E3231F496FCE5C2F92D54
:104A4000F0649F2E08C08C3621F4292D2068922E08
:104A500002C0883641F4F10193FD859193FF819165
:104A60001F018111B3CF9BEB980F933020F4992D48
:104A70009061805E07C09BE9980F933008F066C193
:104A8000992D9F7E96FF16E09F73992E853619F417
:104A90009064992E08C0863621F4392F3068932E01
:104AA00002C01111115097FE07C01C3350F444246A
:104AB0004394410E27E00BC0183038F027E017E090
:104AC00005C027E09CE3492E02C0212F412C56014E
:104AD00084E0A80EB11CF60160817181828193810E
:104AE000042DA3010E94522C6C01F981FC87F0FF78
:104AF00002C0F3FF06C091FC06C092FE06C000E2B1
:104B000005C00DE203C00BE201C000E08C858C7093
:104B100019F001115AC29BC297FE10C04C0CFC85C3
:104B2000F4FF04C08A81813309F44A94141474F5A3
:104B300028E0241578F588E0482E2CC096FC2AC081
:104B4000812F90E08C159D059CF03CEFC3163FEF44
:104B5000D30674F0892D8068982E0AC0E2E0F0E058
:104B6000EC0FFD1FE10FF11D8081803319F411500E
:104B70001111F4CF97FE0EC044244394410E812FAF
:104B800090E0C816D9062CF41C1904C044244394A0
:104B900001C010E097FE06C01C141D0434F4C601C9
:104BA000019605C085E090E002C081E090E001112F
:104BB0000196112331F0212F30E02F5F3F4F820FFC
:104BC000931F252D30E08217930714F4581A01C063
:104BD000512C892D897049F4552039F0B70180E2B4
:104BE00090E00E94402D5A94F7CF002329F0B7019E
:104BF000802F90E00E94402D93FC09C0552039F091
:104C0000B70180E390E00E94402D5A94F7CF97FEC1
:104C10004CC04601D7FE02C0812C912CC6018819D8
:104C20009909F301E80FF91FFE87ED879601241912
:104C30003109388B2F87012F10E01195019511094B
:104C40003FEF8316930629F4B7018EE290E00E94AD
:104C5000402DC814D9044CF08F8598898815990582
:104C600024F4ED85FE85818101C080E3F1E08F1A97
:104C700091082D853E852F5F3F4F3E872D878016FB
:104C800091062CF0B70190E00E94402DD9CFC814B6
:104C9000D90441F49A81963320F4953319F43C8574
:104CA00034FF81E3B70190E04EC08A81813319F06F
:104CB0009C859F7E9C87B70190E00E94402D11113A
:104CC00005C094FC18C085E690E017C0B7018EE2DD
:104CD00090E00E94402D1E5F82E001E0080FF3018A
:104CE000E80FF11D8081B70190E00E94402D802FD8
:104CF0000113F3CFE6CF85E490E0B7010E94402D89
:104D0000D7FC06C0C114D10441F4EC85E4FF05C012
:104D1000D194C194D1088DE201C08BE2B70190E03B
:104D20000E94402D80E32AE0C216D1042CF08F5F50
:104D3000FAE0CF1AD108F7CFB70190E00E94402DDA
:104D4000B701C601C0960E94402D54C1833631F090
:104D5000833779F0833509F056C020C0560132E020
:104D6000A30EB11CF6018081898301E010E063018C
:104D700012C05601F2E0AF0EB11CF601C080D18026
:104D800096FE03C0612F70E002C06FEF7FEFC60197
:104D90000E94352D8C01F92DFF7714C0560122E0B9
:104DA000A20EB11CF601C080D18096FE03C0612F17
:104DB00070E002C06FEF7FEFC6010E942A2D8C01C8
:104DC000F92DF0689F2EF3FD1AC0852D90E008178D
:104DD0001907A8F4B70180E290E00E94402D5A9490
:104DE000F4CFF60197FC859197FE81916F01B70191
:104DF00090E00E94402D51105A9401501109011564
:104E0000110579F7F7C0843611F0893661F556013E
:104E100097FE09C024E0A20EB11CF60160817181E9
:104E2000828193810AC0F2E0AF0EB11CF60160816D
:104E30007181072E000C880B990BF92DFF769F2EA0
:104E400097FF09C090958095709561957F4F8F4F22
:104E50009F4FF0689F2E2AE030E0A3010E94D82DDA
:104E6000C82EC6183FC0092D853721F40F7E2AE0D1
:104E700030E01DC0097F8F3691F018F4883559F065
:104E8000C3C0803719F0883711F0BEC0006104FF3D
:104E900009C0046007C094FE08C0066006C028E090
:104EA00030E005C020E130E002C020E132E05601F0
:104EB00007FF09C084E0A80EB11CF6016081718172
:104EC0008281938108C0F2E0AF0EB11CF6016081CF
:104ED000718180E090E0A3010E94D82DC82EC618F1
:104EE0000F77902E96FE0BC0092D0E7FC11650F441
:104EF00094FE0AC092FC08C0092D0E7E05C0DC2C71
:104F0000092D03C0DC2C01C0D12E04FF0DC0FE0111
:104F1000EC0DF11D8081803311F4097E09C002FF80
:104F200006C0D394D39404C0802F867809F0D3941C
:104F300003FD11C000FF06C01C2DD51480F4150D13
:104F40001D190DC0D51458F4B70180E290E00E94FD
:104F5000402DD394F7CFD51410F45D1801C0512C17
:104F600004FF10C0B70180E390E00E94402D02FFD3
:104F700017C001FD03C088E790E002C088E590E01B
:104F8000B7010CC0802F867859F001FF02C08BE278
:104F900001C080E207FD8DE2B70190E00E94402D44
:104FA000C11638F4B70180E390E00E94402D115003
:104FB000F7CFCA94F301EC0DF11D8081B70190E0A9
:104FC0000E94402DC110F5CF15C0F4E0F51560F535
:104FD00084E0581A93FE1FC0011127C02C8523FFBF
:104FE0002AC00CE411E0392D3071932EF801849120
:104FF000811124C0552009F4E4CCB70180E290E08F
:105000000E94402D5A94F6CFF7018681978126C0E1
:105010008FEF9FEF23C0B70180E290E00E94402D08
:105020005A945110F8CFD8CF512CB701802F90E06F
:105030000E94402DD3CF00E511E0D5CF91108052D2
:10504000B70190E00E94402D0F5F1F4FCFCF23E0AC
:10505000251510F483E0BDCF512CC0CF6096E2E15E
:105060000C94C72B5058BB27AA270E944A280C949F
:10507000F4290E94BB2938F00E94C22920F039F49B
:105080009F3F19F426F40C94B8290EF4E095E7FB41
:105090000C94B229E92F0E94192A58F3BA17620713
:1050A00073078407950720F079F4A6F50C943B2A42
:1050B0000EF4E0950B2EBA2FA02D0B01B901900133
:1050C0000C01CA01A0011124FF27591B99F0593F77
:1050D00050F4503E68F11A16F040A22F232F342FBF
:1050E0004427585FF3CF469537952795A795F0400D
:1050F0005395C9F77EF41F16BA0B620B730B840B22
:10510000BAF09150A1F0FF0FBB1F661F771F881FD9
:10511000C2F70EC0BA0F621F731F841F48F4879531
:1051200077956795B795F7959E3F08F0B0CF939523
:10513000880F08F09927EE0F9795879508950E949C
:105140008E2908F481E008950E94CB29E3950C9400
:10515000052A0E94BD280C94F4290E94C22958F007
:105160000E94BB2940F029F45F3F29F00C94B2293A
:1051700051110C943C2A0C94B8290E94192A68F306
:105180009923B1F3552391F3951B550BBB27AA2700
:1051900062177307840738F09F5F5F4F220F331F3A
:1051A000441FAA1FA9F335D00E2E3AF0E0E832D002
:1051B00091505040E695001CCAF72BD0FE2F29D005
:1051C000660F771F881FBB1F261737074807AB07D7
:1051D000B0E809F0BB0B802DBF01FF2793585F4F4C
:1051E0003AF09E3F510578F00C94B2290C943C2A79
:1051F0005F3FE4F3983ED4F3869577956795B7952E
:10520000F7959F5FC9F7880F911D9695879597F938
:105210000895E1E0660F771F881FBB1F62177307B1
:105220008407BA0720F0621B730B840BBA0BEE1FC6
:1052300088F7E09508950E9422296894B1110C9492
:105240003C2A08950E94212A88F09F5798F0B92F90
:105250009927B751B0F0E1F0660F771F881F991FAB
:105260001AF0BA95C9F714C0B13091F00E943B2AE8
:10527000B1E008950C943B2A672F782F8827B85FF8
:1052800039F0B93FCCF3869577956795B395D9F703
:105290003EF490958095709561957F4F8F4F9F4F0D
:1052A0000895E89409C097FB3EF490958095709519
:1052B00061957F4F8F4F9F4F9923A9F0F92F96E962
:1052C000BB279395F695879577956795B795F111D7
:1052D000F8CFFAF4BB0F11F460FF1BC06F5F7F4F74
:1052E0008F4F9F4F16C0882311F096E911C0772386
:1052F00021F09EE8872F762F05C0662371F096E88F
:10530000862F70E060E02AF09A95660F771F881F5D
:10531000DAF7880F9695879597F90895990F000801
:10532000550FAA0BE0E8FEEF16161706E807F90777
:10533000C0F012161306E407F50798F0621B730B12
:10534000840B950B39F40A2661F0232B242B252B93
:1053500021F408950A2609F4A140A6958FEF811D36
:10536000811D089597F99F6780E870E060E00895D7
:105370009FEF80EC089500240A941616170618066D
:105380000906089500240A94121613061406050649
:1053900008950C94B8290E94212AD8F3E894E0E0FB
:1053A000BB279F57F0F02AED3FE049EC06C0EE0F17
:1053B000BB0F661F771F881F28F0B23A620773077A
:1053C000840728F0B25A620B730B840BE3959A950D
:1053D00072F7803830F49A95BB0F661F771F881FCD
:1053E000D2F790480C94432B092E0394000C11F42F
:1053F000882352F0BB0F40F4BF2B11F460FF04C0B0
:105400006F5F7F4F8F4F9F4F0895EF93E0FF07C06F
:10541000A2EA2AED3FE049EC5FEB0E944A280E9495
:10542000F4290F90039401FC9058EEE2F1E00C9403
:10543000562B57FD9058440F551F59F05F3F71F0A0
:105440004795880F97FB991F61F09F3F79F08795EB
:105450000895121613061406551FF2CF4695F1DF74
:1054600008C0161617061806991FF1CF8695710504
:10547000610508940895E894BB2766277727CB0138
:1054800097F908950E948E2908F48FEF08950E94DD
:105490005A2A0C94F4290E94BB2938F00E94C22990
:1054A00020F0952311F00C94B2290C94B829112402
:1054B0000C943C2A0E94192A70F3959FC1F3950F12
:1054C00050E0551F629FF001729FBB27F00DB11D88
:1054D000639FAA27F00DB11DAA1F649F6627B00D18
:1054E000A11D661F829F2227B00DA11D621F739F01
:1054F000B00DA11D621F839FA00D611D221F749F0F
:105500003327A00D611D231F849F600D211D822F55
:10551000762F6A2F11249F5750409AF0F1F088237C
:105520004AF0EE0FFF1FBB1F661F771F881F9150A9
:105530005040A9F79E3F510580F00C94B2290C947D
:105540003C2A5F3FE4F3983ED4F3869577956795C0
:10555000B795F795E7959F5FC1F7FE2B880F911DD3
:105560009695879597F908950E94212AE8F09E372D
:10557000E8F09639B8F49E3848F4672F782F8827DA
:10558000985FF9CF86957795679593959539D0F380
:10559000B62FB1706B0F711D811D20F48795779523
:1055A000679593950C94262B0C94412B0C943C2AD4
:1055B0009F930E94CB290F9007FCEE5F0C94052A65
:1055C00019F416F40C94B8290C94412B0E94212A4A
:1055D000B8F39923C9F3B6F39F57550B87FF0E9481
:1055E0004F2B0024A0E640EA9001805856959795ED
:1055F00028F4805C660F771F881F20F02617370776
:10560000480730F4621B730B840B202931294A2B85
:10561000A69517940794202531254A2758F7660F39
:10562000771F881F20F026173707480730F4620BD2
:10563000730B840B200D311D411DA09581F7B9011D
:10564000842F9158880F969587950895882371F433
:10565000772321F09850872B762F07C0662311F40B
:1056600099270DC09051862B70E060E02AF09A9542
:10567000660F771F881FDAF7880F9695879597F939
:1056800008959F3F31F0915020F487957795679565
:10569000B795880F911D9695879597F90895915024
:1056A0005040660F771F881FD2F708959F938F93FE
:1056B0007F936F93FF93EF939B01AC010E94472A66
:1056C000EF91FF910E946A2B2F913F914F915F9133
:1056D0000C94472ADF93CF931F930F93FF92EF927F
:1056E000DF927B018C01689406C0DA2EEF010E94E4
:1056F0005A2AFE01E894A59125913591459155913D
:10570000A6F3EF010E944A28FE019701A801DA944E
:1057100069F7DF90EF90FF900F911F91CF91DF918C
:10572000089597FB072E16F4009407D077FD09D053
:105730000E94E22B07FC05D03EF4909581959F4F87
:105740000895709561957F4F0895EE0FFF1F0590A6
:10575000F491E02D09942F923F924F925F926F92B5
:105760007F928F929F92AF92BF92CF92DF92EF92F1
:10577000FF920F931F93CF93DF93CDB7DEB7CA1B72
:10578000DB0B0FB6F894DEBF0FBECDBF09942A889D
:10579000398848885F846E847D848C849B84AA8445
:1057A000B984C884DF80EE80FD800C811B81AA81D2
:1057B000B981CE0FD11D0FB6F894DEBF0FBECDBF9D
:1057C000ED010895AA1BBB1B51E107C0AA1FBB1F17
:1057D000A617B70710F0A61BB70B881F991F5A957D
:1057E000A9F780959095BC01CD0108958F929F9265
:1057F000AF92BF92CF92DF92EF92FF92CF93DF935F
:10580000EC01688179818A819B816115710581052F
:10581000910521F464E279ED8BE597E02DE133EF1A
:1058200041E050E00E94362E49015A019B01AC0133
:10583000A7EAB1E40E94552E6B017C01ACEEB4EFF7
:10584000A50194010E94632EDC01CB018C0D9D1DEE
:10585000AE1DBF1DB7FF03C00197A109B0488883E3
:105860009983AA83BB839F77DF91CF91FF90EF90BD
:10587000DF90CF90BF90AF909F908F9008950E943F
:10588000F62B089588E291E00E94F62B0895A0E09F
:10589000B0E08093280190932901A0932A01B0934E
:1058A0002B010895283008F027E03327DA01990FFB
:1058B000311D87FD916000966105710539F43260F4
:1058C0002E5F3D9330E32A95E1F708959F3F30F036
:1058D00080387105610509F03C5F3C5F3D93913074
:1058E00008F08068911DDF93CF931F930F93FF9271
:1058F000EF92192F987F9695E92F96959695E90F37
:10590000FF27E255FE4F99273327EE24FF24A701F6
:10591000E70105900894079428F4360FE71EF81E57
:10592000491F511D660F771F881F991F0694A1F705
:105930000590079428F4E70EF81E491F561FC11D55
:10594000770F881F991F661F0694A1F7059007948B
:1059500028F4F80E491F561FC71FD11D880F991F25
:10596000661F771F0694A1F70590079420F4490F4E
:10597000561FC71FD81F990F661F771F881F0694D1
:10598000A9F784911095177041F0D695C795579552
:105990004795F794E7941A95C1F7E4E5F1E0689428
:1059A0001590159135916591959105907FE27395CC
:1059B000E118F10A430B560BC90BD009C0F7E10CF3
:1059C000F11E431F561FC91FD01D7EF4703311F402
:1059D0008A95E6CFE894015030F0080F0AF40027CA
:1059E000021708F4202F2395022F7A3328F079E349
:1059F0007D932A95E9F710C07D932A9589F6069440
:105A000097956795379517951794E118F10A430B09
:105A1000560BC90BD00998F023957E9173957A3374
:105A200008F070E37C932013B8F77E9170617D934A
:105A300030F0839571E37D9370E32A95E1F71124AB
:105A4000EF90FF900F911F91CF91DF91992787FDE4
:105A500090950895FC010590615070400110D8F7B1
:105A6000809590958E0F9F1F0895FC0161507040A6
:105A700001900110D8F7809590958E0F9F1F089583
:105A80000F931F93CF93DF93FB01238121FD03C06D
:105A90008FEF9FEF2CC022FF16C0468157812481D3
:105AA00035814217530744F4A081B1819D012F5FD6
:105AB0003F4F318320838C93268137812F5F3F4F67
:105AC0003783268314C08B01EC01FB010084F18530
:105AD000E02D0995892BE1F6D80116968D919C91C0
